{
  "transactions": [
    {
      "hash": "0xa7869bc343609fbb65efadf379f3629c1ebf44d1008b1717f4a836f4a6944959",
      "transactionType": "CREATE",
      "contractName": "RyzeUniswapXExecutor",
      "contractAddress": "0x7acbe6faeabe85078d558bb6510d07dd4c40399e",
      "function": null,
      "arguments": [
        "0x000000001Ec5656dcdB24D90DFa42742738De729",
        "0xCA8A097f627ef41Be12EbF7433F5B6b8A114D77b",
        "0x4200000000000000000000000000000000000006",
        "0x69fc31e5a8Ef5466525496fE421033be664f123E",
        "0x69fc31e5a8Ef5466525496fE421033be664f123E"
      ],
      "transaction": {
        "from": "0x69fc31e5a8ef5466525496fe421033be664f123e",
        "to": null,
        "gas": "0x15d54a",
        "value": "0x0",
        "input": "0x60e03461019657601f6113b838819003918201601f19168301916001600160401b0383118484101761019a5780849260a094604052833981010312610196578051906001600160a01b03821682036101965760208101516001600160a01b0381168103610196576040820151906001600160a01b038216820361019657610094608061008d606086016101ae565b94016101ae565b6001600160a01b03909316938415610183575f80546001600160a01b031981168717825560405196916001600160a01b03909116907f8be0079c531659141344cd1fd0a4f28419497f9722a3daafe3b4186f6b6457e09080a360805260a05260c052600180546001600160a01b0319166001600160a01b039290921691821790555f7ffbe5b6cbafb274f445d7fed869dc77a838d8243a22c460de156560e8857cad038180a36111f590816101c382396080518181816101dd0152818161034a0152610505015260a05181818160c9015281816103bd0152610742015260c051818181610a910152610e1e0152f35b631e4fbdf760e01b5f525f60045260245ffd5b5f80fd5b634e487b7160e01b5f52604160045260245ffd5b51906001600160a01b03821682036101965756fe6080604052600436101561001a575b3615610018575f80fd5b005b5f5f3560e01c80633cf3a02514610e4d5780633fc8cef314610e09578063570ca73514610de1578063585da628146104925780636ea056a914610435578063715018a6146103ee57806388a95e61146103a05780638da5cb5b14610379578063ab57265014610334578063b3ab15fb146102ca578063d0f2d8ac1461016e578063f2fde38b146100fb5763f887ea40146100b4575061000e565b346100f857806003193601126100f8576040517f00000000000000000000000000000000000000000000000000000000000000006001600160a01b03168152602090f35b80fd5b50346100f85760203660031901126100f857610115610eeb565b61011d611006565b6001600160a01b0316801561015a5781546001600160a01b03198116821783556001600160a01b03165f5160206111a05f395f51905f528380a380f35b631e4fbdf760e01b82526004829052602482fd5b5060403660031901126100f857600435906001600160401b0382116100f8578160040191604060031982360301126102c6576024356001600160401b0381116102c2576101bf903690600401610e98565b60015490949192906001600160a01b031633036102b35792938493907f00000000000000000000000000000000000000000000000000000000000000006001600160a01b031690813b156102af578580946102826102709761025e94604051998a988997889663034cd62160e21b88526040600489015260246102566102458380610fb4565b604060448d015260848c0191610fe6565b930190610fb4565b87830360431901606489015290610fe6565b84810360031901602486015291610fe6565b03925af180156102a4576102935750f35b8161029d91610f30565b6100f85780f35b6040513d84823e3d90fd5b8580fd5b631f0853c160e21b8452600484fd5b8280fd5b5080fd5b50346100f85760203660031901126100f8576102e4610eeb565b6102ec611006565b6001546001600160a01b0391821691829082167ffbe5b6cbafb274f445d7fed869dc77a838d8243a22c460de156560e8857cad038580a36001600160a01b0319161760015580f35b50346100f857806003193601126100f8576040517f00000000000000000000000000000000000000000000000000000000000000006001600160a01b03168152602090f35b50346100f857806003193601126100f857546040516001600160a01b039091168152602090f35b50346100f8576103eb6103b236610ec5565b906103bb611006565b7f00000000000000000000000000000000000000000000000000000000000000006001600160a01b031690611047565b80f35b50346100f857806003193601126100f857610407611006565b80546001600160a01b03198116825581906001600160a01b03165f5160206111a05f395f51905f528280a380f35b50346100f8576103eb61044736610ec5565b90610450611006565b835460405163a9059cbb60e01b60208201529261048d91849161047f916001600160a01b03166024840161102c565b03601f198101845283610f30565b611127565b5034610a5c576040366003190112610a5c57600435906001600160401b038211610a5c5736602383011215610a5c576004820135906001600160401b038211610a5c573660248360051b85010111610a5c576024356001600160401b038111610a5c57610503903690600401610e98565b7f00000000000000000000000000000000000000000000000000000000000000006001600160a01b0316949133869003610dd25760018503610dc3578415610c525761010219368490030191602484013583811215610a5c5760249085010190820191602081840312610a5c578035906001600160401b038211610a5c570160c081840312610a5c576040519061059982610f15565b80356001600160401b038111610a5c57810184601f82011215610a5c5780356105c181610f9d565b916105cf6040519384610f30565b81835260206060818501930282010190878211610a5c57602001915b818310610d5f575050508252602082019160208201358352604081019460408301358652606083013560018060401b038111610a5c5783019281601f85011215610a5c5783359361063b85610f9d565b946106496040519687610f30565b80865260208087019160051b83010191848311610a5c5760208101915b838310610cf957505050506060830193845260808101356001600160401b038111610a5c57810182601f82011215610a5c578035906106a482610f9d565b936106b26040519586610f30565b828552602060c0818701940283010191818311610a5c57602001925b828410610c8957505050506080830191825260a0808401910135815282515115610c7a5760208601356001600160a01b0381169490859003610a5c57835180515f19810191908211610c66578051821015610c525760059190911b01602001516040908101516001600160a01b03908116997f0000000000000000000000000000000000000000000000000000000000000000909116989091013592610775848a89611047565b51965194519051915193516040519690959061012088016001600160401b03811189821017610c3e57604090815290885260208089019b8c52888201958652606089019283526080890193845260a089019485523060c08a0190815260e08a019788526101008a019889529151634036d33360e11b81526004810182905298516001600160a01b0390811660248b01529b51909b166044890152935160648801525160848701525161012060a487015280516101448701819052959889979661016489019695949392909101905f5b818110610bfc575050905160c488015250516001600160a01b031660e4860152516023198584030161010486015280518084526020600582901b8501810194928101925f918101905b838310610bb0575050505050519060231984820301610124850152602080835192838152019201905f5b818110610b57575050506020939183809203925af18015610a6857610b28575b50925f925f915b80831015610a835760248360051b8501013586811215610a5c57602490850101608081013590601e1981360301821215610a5c57018035969094906001600160401b038811610a5c576060880236036020870113610a5c575f5b88811015610a735760608102870190602082016001600160a01b0361095c82611106565b1661099757505f5f5160206111805f395f51905f526040610983816001960135809d61111a565b9b8151908152856020820152a25b01610938565b9160406001600160a01b036109ab85611106565b1691013590604051636eb1769f60e11b81523060048201528d6024820152602081604481855afa8015610a68578e915f91610a2c575b5094610a0a5f5160206111805f395f51905f5293604093610a048760019a61111a565b91611047565b610a19868060a01b0391611106565b169281519081525f6020820152a2610991565b929150506020823d8211610a60575b81610a4860209383610f30565b81010312610a5c5790518d90610a0a6109e1565b5f80fd5b3d9150610a3b565b6040513d5f823e3d90fd5b50965093506001909201916108de565b84828882610a8f575080f35b7f00000000000000000000000000000000000000000000000000000000000000006001600160a01b0316803b15610a5c575f8091602460405180948193632e1a7d4d60e01b83528960048401525af18015610a6857610b13575b508180809481935af1610afa610f6e565b5015610b04578080f35b633d2cec6f60e21b8152600490fd5b610b209192505f90610f30565b5f9083610ae9565b6020813d602011610b4f575b81610b4160209383610f30565b81010312610a5c57516108d7565b3d9150610b34565b9193945091602060c060019260a087518580831b03815116835284810151858401526040810151604084015260ff606082015116606084015260808101516080840152015160a0820152019401910191869493926108b7565b919396975091939460208080600193601f19868203018752818b518051918291828552018484015e5f838284010152601f8019910116010198019301930190928997969594929361088d565b825180516001600160a01b039081168a526020828101518216818c0152604092830151909116918a01919091528c9a5060609098019790920191600101610844565b634e487b7160e01b5f52604160045260245ffd5b634e487b7160e01b5f52603260045260245ffd5b634e487b7160e01b5f52601160045260245ffd5b6320a2d33d60e01b5f5260045ffd5b60c084830312610a5c5760405190610ca082610f15565b610ca985610f01565b8252602085013560208301526040850135604083015260608501359060ff82168203610a5c5782602092606060c09501526080870135608082015260a087013560a08201528152019301926106ce565b82356001600160401b038111610a5c57820186603f82011215610a5c57602081013591610d2583610f53565b610d326040519182610f30565b8381526040838501018910610a5c575f602085819660408397018386013783010152815201920191610666565b606083890312610a5c576040519060608201906001600160401b03821183831017610c3e57606092602092604052610d9686610f01565b8152610da3838701610f01565b83820152610db360408701610f01565b60408201528152019201916105eb565b639f25165960e01b5f5260045ffd5b6373f7fe5f60e01b5f5260045ffd5b34610a5c575f366003190112610a5c576001546040516001600160a01b039091168152602090f35b34610a5c575f366003190112610a5c576040517f00000000000000000000000000000000000000000000000000000000000000006001600160a01b03168152602090f35b34610a5c576020366003190112610a5c57610e66611006565b5f80808060043560018060a01b038254165af1610e81610f6e565b5015610e8957005b633d2cec6f60e21b5f5260045ffd5b9181601f84011215610a5c578235916001600160401b038311610a5c5760208381860195010111610a5c57565b6040906003190112610a5c576004356001600160a01b0381168103610a5c579060243590565b600435906001600160a01b0382168203610a5c57565b35906001600160a01b0382168203610a5c57565b60c081019081106001600160401b03821117610c3e57604052565b601f909101601f19168101906001600160401b03821190821017610c3e57604052565b6001600160401b038111610c3e57601f01601f191660200190565b3d15610f98573d90610f7f82610f53565b91610f8d6040519384610f30565b82523d5f602084013e565b606090565b6001600160401b038111610c3e5760051b60200190565b9035601e1982360301811215610a5c570160208101919035906001600160401b038211610a5c578136038313610a5c57565b908060209392818452848401375f828201840152601f01601f1916010190565b5f546001600160a01b0316330361101957565b63118cdaa760e01b5f523360045260245ffd5b6001600160a01b039091168152602081019190915260400190565b91909160205f6040519361107e856110708582019363095ea7b360e01b8552896024840161102c565b03601f198101875286610f30565b84519082855af15f513d826110e1575b50501561109a57505050565b60405163095ea7b360e01b60208201526001600160a01b0390931660248401525f60448085019190915283526110df9261048d906110d9606482610f30565b82611127565b565b9091506110fe57506001600160a01b0381163b15155b5f8061108e565b6001146110f7565b356001600160a01b0381168103610a5c5790565b91908201809211610c6657565b905f602091828151910182855af115610a68575f513d61117657506001600160a01b0381163b155b6111565750565b635274afe760e01b5f9081526001600160a01b0391909116600452602490fd5b6001141561114f56feaf61dc6cc042401fe15274f92999229ecda68c0679600bbf74778716f1e436468be0079c531659141344cd1fd0a4f28419497f9722a3daafe3b4186f6b6457e0a264697066735822122044650e22df2966fda88c1990d059a6e42ef07b37442e52c993c2fbb24d338c6864736f6c634300081e0033000000000000000000000000000000001ec5656dcdb24d90dfa42742738de729000000000000000000000000ca8a097f627ef41be12ebf7433f5b6b8a114d77b000000000000000000000000420000000000000000000000000000000000000600000000000000000000000069fc31e5a8ef5466525496fe421033be664f123e00000000000000000000000069fc31e5a8ef5466525496fe421033be664f123e",
        "nonce": "0x0",
        "chainId": "0x2105"
      },
      "additionalContracts": [],
      "isFixedGasLimit": false
    },
    {
      "hash": "0xca790f9f0ae0ccd5782f484b0601a6b1ec8655defab1aa0aaaa6d3c1e2d4aaac",
      "transactionType": "CALL",
      "contractName": "RyzeUniswapXExecutor",
      "contractAddress": "0x7acbe6faeabe85078d558bb6510d07dd4c40399e",
      "function": "approveRouter(address,uint256)",
      "arguments": [
        "0x833589fCD6eDb6E08f4c7C32D4f71b54bdA02913",
        "115792089237316195423570985008687907853269984665640564039457584007913129639935"
      ],
      "transaction": {
        "from": "0x69fc31e5a8ef5466525496fe421033be664f123e",
        "to": "0x7acbe6faeabe85078d558bb6510d07dd4c40399e",
        "gas": "0x15e8d",
        "value": "0x0",
        "input": "0x88a95e61000000000000000000000000833589fcd6edb6e08f4c7c32d4f71b54bda02913ffffffffffffffffffffffffffffffffffffffffffffffffffffffffffffffff",
        "nonce": "0x1",
        "chainId": "0x2105"
      },
      "additionalContracts": [],
      "isFixedGasLimit": false
    },
    {
      "hash": "0x49c15f192cb4bd9d6cad1e0fa01141c7fc29d7f068b2b12b3765b08e05aab923",
      "transactionType": "CALL",
      "contractName": "RyzeUniswapXExecutor",
      "contractAddress": "0x7acbe6faeabe85078d558bb6510d07dd4c40399e",
      "function": "approveRouter(address,uint256)",
      "arguments": [
        "0x4200000000000000000000000000000000000006",
        "115792089237316195423570985008687907853269984665640564039457584007913129639935"
      ],
      "transaction": {
        "from": "0x69fc31e5a8ef5466525496fe421033be664f123e",
        "to": "0x7acbe6faeabe85078d558bb6510d07dd4c40399e",
        "gas": "0x116f7",
        "value": "0x0",
        "input": "0x88a95e610000000000000000000000004200000000000000000000000000000000000006ffffffffffffffffffffffffffffffffffffffffffffffffffffffffffffffff",
        "nonce": "0x2",
        "chainId": "0x2105"
      },
      "additionalContracts": [],
      "isFixedGasLimit": false
    },
    {
      "hash": "0x87a9ce694aeefb32dda81ea916e356f72e7651873edf637d4dfc733b7f922200",
      "transactionType": "CALL",
      "contractName": "RyzeUniswapXExecutor",
      "contractAddress": "0x7acbe6faeabe85078d558bb6510d07dd4c40399e",
      "function": "approveRouter(address,uint256)",
      "arguments": [
        "0xcbB7C0000aB88B473b1f5aFd9ef808440eed33Bf",
        "115792089237316195423570985008687907853269984665640564039457584007913129639935"
      ],
      "transaction": {
        "from": "0x69fc31e5a8ef5466525496fe421033be664f123e",
        "to": "0x7acbe6faeabe85078d558bb6510d07dd4c40399e",
        "gas": "0x17847",
        "value": "0x0",
        "input": "0x88a95e61000000000000000000000000cbb7c0000ab88b473b1f5afd9ef808440eed33bfffffffffffffffffffffffffffffffffffffffffffffffffffffffffffffffff",
        "nonce": "0x3",
        "chainId": "0x2105"
      },
      "additionalContracts": [],
      "isFixedGasLimit": false
    }
  ],
  "receipts": [
    {
      "type": "0x2",
      "status": "0x1",
      "cumulativeGasUsed": "0x1a3e0d3",
      "logs": [
        {
          "address": "0x7acbe6faeabe85078d558bb6510d07dd4c40399e",
          "topics": [
            "0x8be0079c531659141344cd1fd0a4f28419497f9722a3daafe3b4186f6b6457e0",
            "0x0000000000000000000000000000000000000000000000000000000000000000",
            "0x00000000000000000000000069fc31e5a8ef5466525496fe421033be664f123e"
          ],
          "data": "0x",
          "blockHash": "0xfd1573874f0cd04cbebb3faf6a9e646837cd5ac8beea10127dc8715701c43394",
          "blockNumber": "0x2e2b1de",
          "blockTimestamp": "0x6a4fc09f",
          "transactionHash": "0xa7869bc343609fbb65efadf379f3629c1ebf44d1008b1717f4a836f4a6944959",
          "transactionIndex": "0x84",
          "logIndex": "0x214",
          "removed": false
        },
        {
          "address": "0x7acbe6faeabe85078d558bb6510d07dd4c40399e",
          "topics": [
            "0xfbe5b6cbafb274f445d7fed869dc77a838d8243a22c460de156560e8857cad03",
            "0x0000000000000000000000000000000000000000000000000000000000000000",
            "0x00000000000000000000000069fc31e5a8ef5466525496fe421033be664f123e"
          ],
          "data": "0x",
          "blockHash": "0xfd1573874f0cd04cbebb3faf6a9e646837cd5ac8beea10127dc8715701c43394",
          "blockNumber": "0x2e2b1de",
          "blockTimestamp": "0x6a4fc09f",
          "transactionHash": "0xa7869bc343609fbb65efadf379f3629c1ebf44d1008b1717f4a836f4a6944959",
          "transactionIndex": "0x84",
          "logIndex": "0x215",
          "removed": false
        }
      ],
      "logsBloom": "0x00000000000000000000000000000000000000000000000000800000000000000000000000000000000000000000000000000000000004000000000000000000000000000002000000000000000001000001000000000000000000000000000200000000020000000000000000000800002000000000000000000000000000400000000000000000000000000000000000000000000000000000000000002000000000000000000000000000000000000000000000000000000000000000000000000000000000000080000020000001000000000000000000000000000020000000000000000000000000000000000000000000000000000000000000000000",
      "transactionHash": "0xa7869bc343609fbb65efadf379f3629c1ebf44d1008b1717f4a836f4a6944959",
      "transactionIndex": "0x84",
      "blockHash": "0xfd1573874f0cd04cbebb3faf6a9e646837cd5ac8beea10127dc8715701c43394",
      "blockNumber": "0x2e2b1de",
      "gasUsed": "0x10cb74",
      "effectiveGasPrice": "0x5b8d80",
      "blobGasUsed": "0x721b8",
      "from": "0x69fc31e5a8ef5466525496fe421033be664f123e",
      "to": null,
      "contractAddress": "0x7acbe6faeabe85078d558bb6510d07dd4c40399e",
      "l1GasPrice": "0x4cf5a4f",
      "l1GasUsed": "0xc56b",
      "l1Fee": "0x626e49810",
      "l1BaseFeeScalar": "0x8dd",
      "l1BlobBaseFee": "0x4e8e2b",
      "l1BlobBaseFeeScalar": "0x101c12",
      "daFootprintGasScalar": "0x94"
    },
    {
      "type": "0x2",
      "status": "0x1",
      "cumulativeGasUsed": "0x1d4b859",
      "logs": [
        {
          "address": "0x833589fcd6edb6e08f4c7c32d4f71b54bda02913",
          "topics": [
            "0x8c5be1e5ebec7d5bd14f71427d1e84f3dd0314c0f7b2291e5b200ac8c7c3b925",
            "0x0000000000000000000000007acbe6faeabe85078d558bb6510d07dd4c40399e",
            "0x000000000000000000000000ca8a097f627ef41be12ebf7433f5b6b8a114d77b"
          ],
          "data": "0xffffffffffffffffffffffffffffffffffffffffffffffffffffffffffffffff",
          "blockHash": "0xfd1573874f0cd04cbebb3faf6a9e646837cd5ac8beea10127dc8715701c43394",
          "blockNumber": "0x2e2b1de",
          "blockTimestamp": "0x6a4fc09f",
          "transactionHash": "0x49c15f192cb4bd9d6cad1e0fa01141c7fc29d7f068b2b12b3765b08e05aab923",
          "transactionIndex": "0x9e",
          "logIndex": "0x244",
          "removed": false
        }
      ],
      "logsBloom": "0x00000000000000000000000000000000000000000000000000000000000000000000000000000000004000000000100000000000000000200000000000200000000000000000000000000000800000000000000000080010000000000000000000800000000000000000000000000000000000000000000000000000000000000000000000000000000000000000000000000000000000000000000000000000020000000000000000000000000000000000000000000000000000000000000000000000000000000000000000000000000000000000000000040400000000000010000000000000000000000000000000000000000000000000000000000000",
      "transactionHash": "0x49c15f192cb4bd9d6cad1e0fa01141c7fc29d7f068b2b12b3765b08e05aab923",
      "transactionIndex": "0x9e",
      "blockHash": "0xfd1573874f0cd04cbebb3faf6a9e646837cd5ac8beea10127dc8715701c43394",
      "blockNumber": "0x2e2b1de",
      "gasUsed": "0xefb2",
      "effectiveGasPrice": "0x5b8d80",
      "blobGasUsed": "0x39d0",
      "from": "0x69fc31e5a8ef5466525496fe421033be664f123e",
      "to": "0x7acbe6faeabe85078d558bb6510d07dd4c40399e",
      "contractAddress": null,
      "l1GasPrice": "0x4cf5a4f",
      "l1GasUsed": "0x640",
      "l1Fee": "0x31dbe0b4",
      "l1BaseFeeScalar": "0x8dd",
      "l1BlobBaseFee": "0x4e8e2b",
      "l1BlobBaseFeeScalar": "0x101c12",
      "daFootprintGasScalar": "0x94"
    },
    {
      "type": "0x2",
      "status": "0x1",
      "cumulativeGasUsed": "0x74fc99",
      "logs": [
        {
          "address": "0x4200000000000000000000000000000000000006",
          "topics": [
            "0x8c5be1e5ebec7d5bd14f71427d1e84f3dd0314c0f7b2291e5b200ac8c7c3b925",
            "0x0000000000000000000000007acbe6faeabe85078d558bb6510d07dd4c40399e",
            "0x000000000000000000000000ca8a097f627ef41be12ebf7433f5b6b8a114d77b"
          ],
          "data": "0xffffffffffffffffffffffffffffffffffffffffffffffffffffffffffffffff",
          "blockHash": "0x0000000000000000000000000000000000000000000000000000000000000000",
          "blockNumber": "0x2e2b1df",
          "blockTimestamp": "0x6a4fc0a1",
          "transactionHash": "0x87a9ce694aeefb32dda81ea916e356f72e7651873edf637d4dfc733b7f922200",
          "transactionIndex": "0x40",
          "logIndex": "0xe8",
          "removed": false
        }
      ],
      "logsBloom": "0x00000000000000000000000000000000000000000000000000040000000000000000000000000000004000100000000000000000000000200000000000200000000000000000000000000000800000000000000000000010000000000000000000000000000000000000000000000000000000000000000000000000000000000000000000000000000000000000000000000000002000000000000000000000020000000000000000000000000000000000000000000000000000000000000000000000000000000000000000000000000000000000000000040400000000000010000000000000000000000000000000000000000000000000000000000000",
      "transactionHash": "0x87a9ce694aeefb32dda81ea916e356f72e7651873edf637d4dfc733b7f922200",
      "transactionIndex": "0x40",
      "blockHash": "0x0000000000000000000000000000000000000000000000000000000000000000",
      "blockNumber": "0x2e2b1df",
      "gasUsed": "0xc9f8",
      "effectiveGasPrice": "0x5b8d80",
      "blobGasUsed": "0x39d0",
      "from": "0x69fc31e5a8ef5466525496fe421033be664f123e",
      "to": "0x7acbe6faeabe85078d558bb6510d07dd4c40399e",
      "contractAddress": null,
      "l1GasPrice": "0x4cf5a4f",
      "l1GasUsed": "0x640",
      "l1Fee": "0x9c706077",
      "l1BaseFeeScalar": "0x8dd",
      "l1BlobBaseFee": "0x4e8e2b",
      "l1BlobBaseFeeScalar": "0x101c12",
      "daFootprintGasScalar": "0x94"
    },
    {
      "type": "0x2",
      "status": "0x1",
      "cumulativeGasUsed": "0x75fde2",
      "logs": [
        {
          "address": "0xcbb7c0000ab88b473b1f5afd9ef808440eed33bf",
          "topics": [
            "0x8c5be1e5ebec7d5bd14f71427d1e84f3dd0314c0f7b2291e5b200ac8c7c3b925",
            "0x0000000000000000000000007acbe6faeabe85078d558bb6510d07dd4c40399e",
            "0x000000000000000000000000ca8a097f627ef41be12ebf7433f5b6b8a114d77b"
          ],
          "data": "0xffffffffffffffffffffffffffffffffffffffffffffffffffffffffffffffff",
          "blockHash": "0x0000000000000000000000000000000000000000000000000000000000000000",
          "blockNumber": "0x2e2b1df",
          "blockTimestamp": "0x6a4fc0a1",
          "transactionHash": "0xca790f9f0ae0ccd5782f484b0601a6b1ec8655defab1aa0aaaa6d3c1e2d4aaac",
          "transactionIndex": "0x41",
          "logIndex": "0xe9",
          "removed": false
        }
      ],
      "logsBloom": "0x00000000000000000000000000000000000000000000000000000000000000000000000000000000004000000000000000000000000000200000000000240000000000000000000000000000800000000000000000000010000000000000000000000000000000000000000000000000000000020000000000000000000000000000000000000000000000000000000000000000000000000000000000000000020000000000000000000000000000000000000000000000000000000000000000000000000000000000000000000000000000000000000000040400000000000010000000000000000000000000008000000000000000000000000000000000",
      "transactionHash": "0xca790f9f0ae0ccd5782f484b0601a6b1ec8655defab1aa0aaaa6d3c1e2d4aaac",
      "transactionIndex": "0x41",
      "blockHash": "0x0000000000000000000000000000000000000000000000000000000000000000",
      "blockNumber": "0x2e2b1df",
      "gasUsed": "0x10149",
      "effectiveGasPrice": "0x5b8d80",
      "blobGasUsed": "0x39d0",
      "from": "0x69fc31e5a8ef5466525496fe421033be664f123e",
      "to": "0x7acbe6faeabe85078d558bb6510d07dd4c40399e",
      "contractAddress": null,
      "l1GasPrice": "0x4cf5a4f",
      "l1GasUsed": "0x640",
      "l1Fee": "0x9c706077",
      "l1BaseFeeScalar": "0x8dd",
      "l1BlobBaseFee": "0x4e8e2b",
      "l1BlobBaseFeeScalar": "0x101c12",
      "daFootprintGasScalar": "0x94"
    }
  ],
  "libraries": [],
  "pending": [],
  "returns": {
    "executor": {
      "internal_type": "contract RyzeUniswapXExecutor",
      "value": "0x7acBe6faEabE85078D558bb6510D07dd4c40399e"
    }
  },
  "timestamp": 1783611551902,
  "chain": 8453,
  "commit": "64672f8"
}